{
  "contractName": "TeamAllocation",
  "abi": [
    {
      "constant": false,
      "inputs": [],
      "name": "getTotalAllocation",
      "outputs": [
        {
          "name": "",
          "type": "uint256"
        }
      ],
      "payable": false,
      "stateMutability": "nonpayable",
      "type": "function"
    },
    {
      "constant": true,
      "inputs": [],
      "name": "teamStorageVault",
      "outputs": [
        {
          "name": "",
          "type": "address"
        }
      ],
      "payable": false,
      "stateMutability": "view",
      "type": "function"
    },
    {
      "constant": true,
      "inputs": [],
      "name": "lockedTeamAllocationTokens",
      "outputs": [
        {
          "name": "",
          "type": "uint256"
        }
      ],
      "payable": false,
      "stateMutability": "view",
      "type": "function"
    },
    {
      "constant": true,
      "inputs": [],
      "name": "unlockedAt",
      "outputs": [
        {
          "name": "",
          "type": "uint256"
        }
      ],
      "payable": false,
      "stateMutability": "view",
      "type": "function"
    },
    {
      "constant": true,
      "inputs": [],
      "name": "owner",
      "outputs": [
        {
          "name": "",
          "type": "address"
        }
      ],
      "payable": false,
      "stateMutability": "view",
      "type": "function"
    },
    {
      "constant": false,
      "inputs": [],
      "name": "unlock",
      "outputs": [],
      "payable": true,
      "stateMutability": "payable",
      "type": "function"
    },
    {
      "constant": false,
      "inputs": [
        {
          "name": "newOwner",
          "type": "address"
        }
      ],
      "name": "transferOwnership",
      "outputs": [],
      "payable": false,
      "stateMutability": "nonpayable",
      "type": "function"
    },
    {
      "inputs": [],
      "payable": false,
      "stateMutability": "nonpayable",
      "type": "constructor"
    },
    {
      "anonymous": false,
      "inputs": [
        {
          "indexed": true,
          "name": "previousOwner",
          "type": "address"
        },
        {
          "indexed": true,
          "name": "newOwner",
          "type": "address"
        }
      ],
      "name": "OwnershipTransferred",
      "type": "event"
    }
  ],
  "bytecode": "0x606060405260006004557334b2413ac3508987f37ea323907d30b9fdf6e44e600560006101000a81548173ffffffffffffffffffffffffffffffffffffffff021916908373ffffffffffffffffffffffffffffffffffffffff160217905550341561006957600080fd5b6000336000806101000a81548173ffffffffffffffffffffffffffffffffffffffff021916908373ffffffffffffffffffffffffffffffffffffffff16021790555033600260006101000a81548173ffffffffffffffffffffffffffffffffffffffff021916908373ffffffffffffffffffffffffffffffffffffffff1602179055506276a7009050610112814261018f640100000000026105c9179091906401000000009004565b6001819055506a1c1fc7b177378f6200000060036000600560009054906101000a900473ffffffffffffffffffffffffffffffffffffffff1673ffffffffffffffffffffffffffffffffffffffff1673ffffffffffffffffffffffffffffffffffffffff16815260200190815260200160002081905550506101ad565b60008082840190508381101515156101a357fe5b8091505092915050565b610613806101bc6000396000f300606060405260043610610083576000357c0100000000000000000000000000000000000000000000000000000000900463ffffffff16806315d3b5d814610088578063213d7a09146100b157806349a8d337146101065780638cb1e9c11461012f5780638da5cb5b14610158578063a69df4b5146101ad578063f2fde38b146101b7575b600080fd5b341561009357600080fd5b61009b6101f0565b6040518082815260200191505060405180910390f35b34156100bc57600080fd5b6100c4610203565b604051808273ffffffffffffffffffffffffffffffffffffffff1673ffffffffffffffffffffffffffffffffffffffff16815260200191505060405180910390f35b341561011157600080fd5b610119610229565b6040518082815260200191505060405180910390f35b341561013a57600080fd5b610142610238565b6040518082815260200191505060405180910390f35b341561016357600080fd5b61016b61023e565b604051808273ffffffffffffffffffffffffffffffffffffffff1673ffffffffffffffffffffffffffffffffffffffff16815260200191505060405180910390f35b6101b5610263565b005b34156101c257600080fd5b6101ee600480803573ffffffffffffffffffffffffffffffffffffffff16906020019091905050610474565b005b60006a1c1fc7b177378f62000000905090565b600560009054906101000a900473ffffffffffffffffffffffffffffffffffffffff1681565b6a1c1fc7b177378f6200000081565b60015481565b6000809054906101000a900473ffffffffffffffffffffffffffffffffffffffff1681565b6001544211151561027357600080fd5b6000600454141561036557600260009054906101000a900473ffffffffffffffffffffffffffffffffffffffff1673ffffffffffffffffffffffffffffffffffffffff166370a08231306000604051602001526040518263ffffffff167c0100000000000000000000000000000000000000000000000000000000028152600401808273ffffffffffffffffffffffffffffffffffffffff1673ffffffffffffffffffffffffffffffffffffffff168152602001915050602060405180830381600087803b151561034357600080fd5b6102c65a03f1151561035457600080fd5b505050604051805190506004819055505b600260009054906101000a900473ffffffffffffffffffffffffffffffffffffffff1673ffffffffffffffffffffffffffffffffffffffff1663a9059cbb600560009054906101000a900473ffffffffffffffffffffffffffffffffffffffff166004546000604051602001526040518363ffffffff167c0100000000000000000000000000000000000000000000000000000000028152600401808373ffffffffffffffffffffffffffffffffffffffff1673ffffffffffffffffffffffffffffffffffffffff16815260200182815260200192505050602060405180830381600087803b151561045657600080fd5b6102c65a03f1151561046757600080fd5b5050506040518051905050565b6000809054906101000a900473ffffffffffffffffffffffffffffffffffffffff1673ffffffffffffffffffffffffffffffffffffffff163373ffffffffffffffffffffffffffffffffffffffff161415156104cf57600080fd5b600073ffffffffffffffffffffffffffffffffffffffff168173ffffffffffffffffffffffffffffffffffffffff161415151561050b57600080fd5b8073ffffffffffffffffffffffffffffffffffffffff166000809054906101000a900473ffffffffffffffffffffffffffffffffffffffff1673ffffffffffffffffffffffffffffffffffffffff167f8be0079c531659141344cd1fd0a4f28419497f9722a3daafe3b4186f6b6457e060405160405180910390a3806000806101000a81548173ffffffffffffffffffffffffffffffffffffffff021916908373ffffffffffffffffffffffffffffffffffffffff16021790555050565b60008082840190508381101515156105dd57fe5b80915050929150505600a165627a7a72305820b3625adc3772359ed99ed859e7315c1988794159acfe0dddd4a398570a17f6cd0029",
  "source": "pragma solidity ^0.4.15;\n\nimport './base/math/SafeMath.sol';\nimport './base/ownership/Ownable.sol';\n\nimport './ABC.sol';\n\ncontract TeamAllocation is Ownable {\n\n  using SafeMath for uint;\n\n  uint public unlockedAt;\n  ABC abc;\n  mapping (address => uint) allocations;\n  uint tokensCreated = 0;\n  uint constant public lockedTeamAllocationTokens = 34000000e18;\n\n  //address of the founder storage vault\n  address public teamStorageVault = 0x34b2413ac3508987f37Ea323907d30b9fdF6E44E;\n\n  function TeamAllocation() {\n    abc = ABC(msg.sender);\n    // Locked time of approximately 9 months before team members are able to redeeem tokens.\n    uint nineMonths = 3 * 30 days;\n    unlockedAt = now.add(nineMonths);\n    //34m tokens from the Marketing bucket which are locked for 3 months\n    allocations[teamStorageVault] = lockedTeamAllocationTokens;\n  }\n\n  function getTotalAllocation() returns (uint){\n      return lockedTeamAllocationTokens;\n  }\n\n  function unlock() external payable {\n    require (now > unlockedAt);\n\n    if (tokensCreated == 0) {\n      tokensCreated = abc.balanceOf(this);\n    }\n\n    //transfer the locked tokens to the teamStorageAddress\n    abc.transfer(teamStorageVault, tokensCreated);\n  }\n}\n",
  "sourcePath": "/home/aequalis/Desktop/TokenCreations/Zeppelin_os/ABCToken/contracts/TeamAllocation.sol",
  "compiler": {
    "name": "solc",
    "version": "0.4.18+commit.9cf6e910.Emscripten.clang"
  },
  "schemaVersion": "1.0.1",
  "updatedAt": "2018-01-09T13:48:47.211Z"
}